:020000040010EA
:10000000700400203D011000450110004701100060
:1000100000000000000000000000000000000000E0
:100020000000000000000000000000005601100069
:100030000000000000000000580110005A011000EC
:100040005C0110005C0110005C0110005C011000FC
:100050005C0110005C0110005C0110005C011000EC
:100060005C0110005C0110005C0110005C011000DC
:100070005C0110005C0110005C0110005C011000CC
:100080005C0110005C0110005C0110005C011000BC
:100090005C0110005C0110005C0110005C011000AC
:1000A0005C0110005C0110005C0110005C0110009C
:1000B0005C0110005C0110005C0110005C0110008C
:1000C0005C0110005C0110005C0110005C0110007C
:1000D0005C0110005C0110005C0110005C0110006C
:1000E0005C0110005C0110005C0110005C0110005C
:1000F0005C0110005C0110005C0110005C0110004C
:100100000D0410005C0110005C0110005C01100087
:100110005C0110005C0110005C0110005C0110002B
:100120005C0110005C0110000348854600F028F8CF
:10013000004800471D071000700400200C4880474D
:100140000C480047FEE77046EFF30881EFF30982A1
:10015000094B98470047FEE7FEE7FEE7FEE7C0468B
:10016000ABBE064B744698472047C0467046F047E2
:1001700019071000290110007506100077061000FD
:100180001CB5094800900948019005460126009CCD
:1001900005E0E36807CC33430C3C98471034AC428D
:1001A000F7D3FFF7C5FF0000D00E1000F00E1000CF
:1001B000D2B201E00270401C491EFBD270470022FF
:1001C000F6E710B513460A4604461946FFF7F0FF56
:1001D000204610BD024670B54A40D30FDB074000F1
:1001E0002DD04A002AD0010E140E00021202091965
:1001F000400A520A8418E50104465443000A120AD0
:100200002E045043A4194219200CC543AA18120CFD
:100210000125AD03521C521912047F39240400D069
:10022000521C104301D44000491EC2B20C06C00942
:100230002018401C4008802A02D003E0002070BD36
:1002400040084000002900DA0020184370BD10B5B6
:1002500000229623114600F022F810BDC20F410083
:1002600040020123400ADB05D207090EC0187F298E
:1002700001DA00207047962903DC9623591AC840FA
:1002800001E096398840002AF4D0404270470029A6
:1002900004DA401C490001D140084000704770B4A6
:1002A0000024050C05D11024000402D1002921D01E
:1002B0001124050E01D100020834050F01D10001FF
:1002C000241D850F01D18000A41C002801DB400003
:1002D000641C002908D020252E1B0D46F540A140A6
:1002E00000D001212943084301061B1B000ADB1D26
:1002F00002D5002070BC7047DB0518188018002953
:10030000F8DA401C4900F5D170BC40084000704745
:10031000F8B50026204C3046A04705460420A047EB
:100320000746AF48A047690F33D01C498D4230D8EB
:100330000090AB4CE01C87422BD8F80729D00098DE
:10034000401C022825D30026F543154F3446A44807
:10035000864219D2304600F077F92146042911D09F
:10036000CA000346D340DAB26A400023072B06D8FE
:100370005508D20700D07D402A465B1CF6E7491C91
:100380001546EBE7361DE2E700984540681C4642FB
:1003900046413046F8BDC04649061000FF5F0020C8
:1003A0002083B8ED02498A691202FCD408607047C4
:1003B00000100740B0B570B104460D2520780A281A
:1003C00001D020B907E02846FFF7ECFF2078FFF7BF
:1003D000E9FF641CF2E7B0BD012181F31088CD482C
:1003E0000268A3482E23836000230360C160D10804
:1003F000491CC26812B1491E0029FADC0248016892
:1004000002220A430260FEE708000040F0B52A48D5
:100410000168C9074ED00168284A0A430260416D4D
:10042000490644D0416D8904890E48224A43036D30
:100430009BB29B18224C1E59F50F5F27214AD555B8
:10044000B500ED0F15740125AD07354003D0072722
:100450007F07BE4301E0F600760D56611B195C680C
:10046000A602F60F5D27D655E602F60F5E27D65593
:10047000AD0F15712403240F092C07D3093C052C5B
:1004800003D8E4B210A52C5D00E040249461083349
:100490000025A54205D25C5D561934776D1C946920
:1004A000F7E78165416D890101D5082101600548A3
:1004B00001210170F0BDC04650000240010004005F
:1004C00000020240080000200C1014182030000028
:1004D000F0B585B00493164602910A9D0024EC7194
:1004E000111D05220392B1FBF2F129711F498842C7
:1004F00001D8204F00E01E4FFD211F4A904201917C
:1005000000D98F053046FFF7A2FE01463846FFF7B7
:1005100061FEFFF7A3FE311AA971401E6871049FA6
:10052000204621462246D7B102981049884201D878
:10053000104E00E00E4E01990F4A904200D98E05F0
:100540003846FFF784FE01463046FFF743FEFFF7CB
:1005500085FE391A401E3A1D039BB2FBF3F2E97285
:10056000A8722C736A7205B0F0BDC046FF340C004F
:10057000CDCC4C3F0000603F3F420F00B0B5402B58
:1005800002D8049D402D00D9B0BD144C70B1FDB10E
:10059000280410432061E06970210143E161482192
:1005A00069430F4810400F4A80180EE09BB11804B1
:1005B00008432060E06907220243E26148225A436F
:1005C00007480840074940181146FFF7F8FDB0BD3D
:1005D00000202061B0BD00202060B0BDA00002401E
:1005E000FCFF000000020240B0B5820AD3B20F4AFD
:1005F0005BB18405E40EA340040C0C2525400CA43B
:100600006459141925699D43256103015B0F0BD0C3
:10061000C401E40EA340800E0C24044006A000593F
:1006200084589C430C438450B0BDC0461002004027
:1006300000000000040000000000000004000000B2
:10064000080000000C000000094900238B600860CE
:100650000120C8602F480068C008421CD843CB68FE
:10066000DB0703D0521E012AF9DA70474868704749
:1006700004C0004070477047B0B5194802680721B0
:100680001140026B05231B041A4201D0002316E01F
:10069000130301D5144B00E0124B94030FD4134CF9
:1006A0001440A41C9B0863431404A40F104D2C5D3C
:1006B0009204D20E921C6243B3FBF2F29300022921
:1006C00001D1590802E089000AA2515800690F229D
:1006D0000240501CB1FBF0F00E490860B0BDC046AE
:1006E00010020040001BB70000366E01FF01000041
:1006F000CA0E1000001BB7000080000000449508DF
:100700000096000000000000000000000000000053
:10071000006CDC020000002070470000B2B015AB96
:10072000203315A859301390C64AC74859271624B4
:100730008825176014601560401C02D211680029DA
:10074000F7D0C2480168F02291430160C04E306882
:10075000042101433160BF480068316DC90602D4ED
:10076000401EFAD11FE0306801210E91084330602D
:10077000B8480068316DC90702D1401EFAD112E0B5
:100780003069072290433061B348011D306C0D91F0
:1007900008433064B1483064AE480068316D4907A1
:1007A00002D4401EFAD1FEE704920893306A0F216A
:1007B0000791884330623069022105910843052181
:1007C0000F9188433061FFF757FF0E980106A44848
:1007D000FFF70AFF706840F20011084370600E983E
:1007E00041041491B0680843B0609E480C211191F7
:1007F000FFF7FAFE079A10069B4E316B81430323E5
:100800001806081830631007316B81431807081861
:100810003063706814990843706070688843706032
:100820009248069303609249816113461004B16BAC
:100830008143092002048918B1631905B26B8A4308
:10084000000510181296B0638A490868384308609A
:100850000E9800058849086088A0FFF7ABFDFFF7F8
:1008600057FD002865D18AA0FFF7A4FD7E490868DE
:1008700040F200121043086008688C4E3040086057
:1008800015A8001D6C21FFF79AFC06992C910A20EF
:1008900028901198279040F2004031902B912D9193
:1008A0002A91299140F20010583023908020019025
:1008B000229030202190002018907D49159140F21F
:1008C0003021249140F23022F0322692D831259105
:1008D0005C490A680E990A400392C90410915C4968
:1008E00009698901890F734A2ED0022923D0012971
:1008F00026D15749096C0F9B1B04194223D110982C
:10090000014200D06C4A149801421BD10804800FA8
:100910006A4B185C8B04DB0E9B1C434340F20010B7
:10092000FF300840801C91084143B1FBF3F0800088
:1009300009E063A072E2FFF79FFE4648026803E009
:10094000654A01E01046420803983E493E4B38B9DB
:100950000F600C600D605B1C02D208680028F7D0A5
:100960003B49486840F20013184348603E49086814
:1009700018430860086830400860584D0E98E860D9
:10098000E86805990843E860554800210160149122
:100990000161544815990B91814200D30B9008983E
:1009A000077815A8017E0A91183002901420189B30
:1009B00040F20041092800D24EE20B9C09904443CA
:1009C0000F940E9C481C844234D0119420460F9CF6
:1009D0006043B2FBF0F6052E29D87043824226D13F
:1009E000E86840F20011084200D11BE20B9903B104
:1009F00019461198202803D80B98814200D11EE295
:100A00000C9171431423092B0DD31F464F4301242E
:100A1000212C05D020467843904267D0641CF7E72C
:100A20005B1E2127EFE70A960C9B40F20041119CC8
:100A3000641CC7E715A82C4C4483089807700998D4
:100A4000401EB7E700010040009423FD40410040F4
:100A50000002004000000020FCFF00002E400000CB
:100A6000083C8407913D2066080000400C100740B8
:100A70009F01003000C0004008ED00E05B626F6F36
:100A8000745D626F6F742073746172740A00000089
:100A90005B626F6F745D696E76616C69642C7374F0
:100AA000617920626F6F740A00000000FFFEFFFF93
:100AB00020A10700001BB70000366E01CA0E10000F
:100AC0005B626F6F745D76616C69642C71756963CC
:100AD0006B206A756D700A00006CDC020C0002402D
:100AE000A000024040420F0001040000089804707A
:100AF00015A8067611994183029800900B980C99DD
:100B0000099AFFF7E5FCD74B596A0798814315A866
:100B1000027E521E0A435A62E968059A1143E9604F
:100B2000817F7F220A401C99491E4906438BDB05C1
:100B3000DB09C9188918427FC07F8018C0B2000243
:100B40000918CD48091810312961E96840F20012EE
:100B5000114213D0089B5978079A11401A78D2068F
:100B6000D20A1018DA781207120E801840189978F5
:100B70001A795118C906C90C40182860BF4818993D
:100B8000814214D32868E96B47F600729143C00490
:100B9000C00E02025118E963E96B7F2291434018AD
:100BA000401CE8630E98C005296801432960B14ADA
:100BB00004989062D069D169014370200843D061E4
:100BC000039810B91498A6490860279959B120983C
:100BD000A64A10400A06120A1218AA67A84A8018E4
:100BE0008900FFF7ECFA289959B121989F4A1040E3
:100BF0000A06120A1218EA67A14A8018C900FFF70C
:100C0000DEFA2C9888B1269A98490A408106890A0A
:100C10008918984B1962996A049C2143996248216A
:100C2000414397481018FFF7CAFA2B9840F2007119
:100C300068B1249A8D4B1A408E4CE260E3690B43F5
:100C4000E361482141438E481018FFF7B8FA2A9C07
:100C5000299E36B1239A2299009400203346FFF74B
:100C60008DFC34B1239A2299009401203346FFF77A
:100C700085FC2D9830B125997C4A11400004081854
:100C80007C490865686F0699084068673F20686777
:100C90000898007A38B1E86801990843E860686804
:100CA000102101436960A86F704908407549744A72
:100CB0008150686F069A104068676A67A86C72492D
:100CC0000143A964286D0E99084328656949086C99
:100CD0000864486C48646D480D990160624800687A
:100CE000E9689143E960E968C90701D0401EFAD17B
:100CF000674EB120070612980838129008200F900E
:100D0000182451204006119030780028FCD0149807
:100D10003070F069B84202D11298006806E0F069BC
:100D2000119988422BD1306AFFF78EFC30621398FC
:100D3000149941700170F0691B90306A1C904A4808
:100D400000684C49C96AC907DED14A49096A89B2B3
:100D50004B4A554B8B508918109A4A600F9A102AAB
:100D600005D015AB9B181B698B50121DF7E7014688
:100D7000AA6B2240082A0CD0491EF9D1C4E7AB2047
:100D80000006F16981420ED1FFF7C2FA0028BBD0FC
:100D900043E00E99374A11633649C96AC907B3D18E
:100DA000401EF9D1B0E7F069F0690D99884231D25F
:100DB00040F20070FF30F16901422D4B16D1F0690D
:100DC0002221D96058600E981861274800684008B1
:100DD000401C1969C90702D0401E0028F9DC1868B8
:100DE000400603D51868402101431960F069316A53
:100DF0002122DA60586099600E9818611A480068DC
:100E0000C008401C1969C90702D0401E0028F9DC3F
:100E1000F06989E71498C04388E71EA0FFF7CAFA73
:100E2000FFF7DAFA08981499017015A80676119A56
:100E30004283029800900B98099A0B4661E6089845
:100E40001199017015A806764183029800900B98BD
:100E50000146099A134654E615A80A9901768DE6CB
:100E6000000100400002004000000020FCFF0000E4
:100E700000C00040A0000240EFFEFEFF41420F0014
:100E800000020240FF07878C0100040004E100E03B
:100E9000080000205B626F6F745D76616C69642C82
:100EA0006A756D700A0000000000101E02E008C89C
:100EB000121F08C1002AFAD170477047002001E0D4
:100EC00001C1121F002AFBD1704701020204000079
:100ED000F00E10000000002004000000AC0E100016
:100EE000F40E10000800002068040000BC0E100082
:040EF000004495081D
:040000050010013DA9
:00000001FF
